:0200000036299F
:10000600103083120313FD00FD0B072800000800C3
:0400160000000800DE
:10001A00083083120313FC002330FD00FD0B132864
:06002A00FC0B1328080086
:1000300083120313B91B1E2886121F288616391B2C
:100040002328061224280616B91A282886112928DA
:100050008615391A2D2806112E2806152F18322834
:1000600006143328061086140B208610B9193A2876
:1000700086123B28861639193F2806124028061694
:10008000B9184428861145288615391849280611BB
:100090004A2806152F184E2806144F2806108614D5
:1000A0000B2086102F1C56280D20572803200800EF
:0E00B0008312031331088A0030088200080012
:1000BE00831203132F103808B90018202F140800CC
:1000CE007928803083120313B4008C28C030B4001A
:1000DE008C289430B4008C28D430B4008C28803016
:1000EE00B4008C28831203133408013A03196828CC
:1000FE003408023A03196D283408033A031970289C
:10010E003408043A0319732876283503F0003408AE
:10011E00F0077008B4007008B90018202F10B7014E
:10012E0037083607840000080319A5283708360754
:10013E0084000008B8005F20B70A97282F14080023
:10014E0083160313861006100611861106128612E8
:10015E0083128610061086120612861106110D20C5
:10016E000D200D208615061586140B2086100D20E9
:10017E0086140B2086100D2086140B2086100D2061
:10018E00061186140B2086100D2086140B20861067
:10019E008611861686140B2086100D2086120615E3
:1001AE0086140B208610061186140B2086100D2047
:1001BE0086140B208610061586140B2086100D2033
:1001CE00061186140B208610861606168615061541
:0C01DE0086140B2086100D202F14080042
:1001EA000729803083120313B4001A29C030B400DF
:1001FA001A299430B4001A29D430B4001A2980304C
:10020A00B4001A29831203133408013A0319F62891
:10021A003408023A0319FB283408033A0319FE2862
:10022A003408043A0319012904293503F000340873
:10023A00F0077008B4002F147008B90018202F10A6
:0A024A003608B90018202F14080030
:1002540058208A110A128000840AB00A0319B10ACC
:08026400F003031D2A29080024
:10026C00493083120313A0006E30A1007630A20037
:10027C006130A3006C30A4006930A5006430A60086
:10028C002030A7007330A8007430A9006130AA0098
:10029C007430AB006530AC002130AD00AE01FF30E6
:1002AC0083168700A7200130B90018200C30B90044
:1002BC0018200708B3000130B90018200C30B90021
:1002CC0018208B293130B200B0293230B200B0295D
:1002DC003330B200B0293430B200B0293530B2001E
:1002EC00B0293630B200B0293730B200B0293830DE
:1002FC00B200B0293930B200B0290130B40001305D
:10030C00B5002030B6006720B0293308063A03192F
:10031C00682933085B3A03196B2933084F3A0319E0
:10032C006E293308663A0319712933086D3A03199B
:10033C00742933087D3A031977293308073A0319CE
:10034C007A2933087F3A03197D2933086F3A031948
:10035C00802983290130B4000A30B5003208B60078
:10036C00F5200630FB001330FC00AD30FD00FD0B1A
:10037C00BD29FC0BBD29FB0BBD29000000005F292A
:02038C00C62980
:02400E004A2F37
:00000001FF
